{
  "contractName": "Calculator",
  "abi": [
    {
      "constant": false,
      "inputs": [
        {
          "name": "initial",
          "type": "uint256"
        }
      ],
      "name": "constructor",
      "outputs": [],
      "payable": false,
      "stateMutability": "nonpayable",
      "type": "function"
    },
    {
      "constant": true,
      "inputs": [],
      "name": "getResult",
      "outputs": [
        {
          "name": "",
          "type": "uint256"
        }
      ],
      "payable": false,
      "stateMutability": "view",
      "type": "function"
    },
    {
      "constant": false,
      "inputs": [
        {
          "name": "num",
          "type": "uint256"
        }
      ],
      "name": "addToNumber",
      "outputs": [
        {
          "name": "",
          "type": "uint256"
        }
      ],
      "payable": false,
      "stateMutability": "nonpayable",
      "type": "function"
    },
    {
      "constant": false,
      "inputs": [
        {
          "name": "num",
          "type": "uint256"
        }
      ],
      "name": "substractFromNumber",
      "outputs": [
        {
          "name": "",
          "type": "uint256"
        }
      ],
      "payable": false,
      "stateMutability": "nonpayable",
      "type": "function"
    },
    {
      "constant": true,
      "inputs": [],
      "name": "multiplyWithNumber",
      "outputs": [
        {
          "name": "",
          "type": "uint256"
        }
      ],
      "payable": false,
      "stateMutability": "view",
      "type": "function"
    },
    {
      "constant": true,
      "inputs": [],
      "name": "divideNumberBy",
      "outputs": [
        {
          "name": "",
          "type": "uint256"
        }
      ],
      "payable": false,
      "stateMutability": "view",
      "type": "function"
    }
  ],
  "bytecode": "0x608060405234801561001057600080fd5b50610234806100206000396000f300608060405260043610610078576000357c0100000000000000000000000000000000000000000000000000000000900463ffffffff16806306ccd2301461007d5780630ce4805c146100be578063767b6190146100e957806382f7d5c314610116578063de29278914610141578063ef455b3c1461016c575b600080fd5b34801561008957600080fd5b506100a8600480360381019080803590602001909291905050506101ad565b6040518082815260200191505060405180910390f35b3480156100ca57600080fd5b506100d36101c8565b6040518082815260200191505060405180910390f35b3480156100f557600080fd5b50610114600480360381019080803590602001909291905050506101d1565b005b34801561012257600080fd5b5061012b6101db565b6040518082815260200191505060405180910390f35b34801561014d57600080fd5b506101566101e4565b6040518082815260200191505060405180910390f35b34801561017857600080fd5b50610197600480360381019080803590602001909291905050506101ed565b6040518082815260200191505060405180910390f35b60008160008082825401925050819055506000549050919050565b60008054905090565b8060008190555050565b60008054905090565b60008054905090565b600081600080828254039250508190555060005490509190505600a165627a7a72305820846447b7b0aea3a2d7c264716df7c25b0181875e4fa464ea43340f13785ea8c30029",
  "source": "pragma solidity ^0.4.6;\n\ncontract Calculator {\n\n  uint result;\n\n  function constructor(uint initial) public {\n    // constructor\n    result = initial;\n  }\n  // returns the result\n  function getResult() public constant returns (uint) {\n    return result;\n  }\n\n  // result = result + num\n  function addToNumber(uint num) public returns (uint) {\n    result += num;\n    return result;\n  }\n\n  // result = result - num\n  function substractFromNumber(uint num) public returns (uint) {\n    result -= num;\n    return result;\n  }\n\n  // result = result * num\n  function multiplyWithNumber() public view returns (uint) {\n    return result;\n  }\n\n  // result = result / num\n  function divideNumberBy() public view returns (uint) {\n    return result;\n  }\n\n}",
  "sourcePath": "/Users/Davidk/demo-truffle/contracts/Calculator.sol",
  "compiler": {
    "name": "solc",
    "version": "0.4.24+commit.e67f0147.Emscripten.clang"
  },
  "schemaVersion": "2.0.0",
  "updatedAt": "2018-06-25T20:54:49.784Z"
}